:100000000C9434000C9451000C9451000C94510049
:100010000C9451000C9451000C9451000C9451001C
:100020000C9451000C9451000C9451000C9451000C
:100030000C9451000C94A0070C9451000C945100A6
:100040000C9456070C9451000C9451000C945100E0
:100050000C9451000C9451000C9451000C945100DC
:100060000C9451000C94510011241FBECFEFD8E026
:10007000DEBFCDBF11E0A0E0B1E0E8EDF5E102C0E8
:1000800005900D92AA30B107D9F721E0AAE0B1E0BE
:1000900001C01D92A833B207E1F70E94C7070C9474
:1000A000EA0A0C94000010921F0110922001909116
:1000B0002D0180912C01E0913201F09133019F01DB
:1000C000989F200D311D1124C901E817F90711F07F
:1000D0001192FBCF08950F93CF93DF93E3E2F1E00A
:1000E000A785B089C0910E01D0910F018285AC0F18
:1000F000BD1F0BB10F7703C000FA07F90BB90D90C4
:10010000000007FA07F90BB900000000000006FA2A
:1001100007F90BB900000000000005FA07F90BB958
:1001200000000000000004FA07F90BB9000000000D
:10013000000003FA07F90BB900000000000002FA02
:1001400007F90BB900000000000001FA07F90BB92C
:100150008A9591F60000000000FA07F90BB90BB17F
:100160000F7707FB07F90BB9DF91CF910F91089536
:100170000F93CF93DF93E3E2F1E0A785B089C091BD
:100180000E01D0910F018285AC0FBD1F0BB10F770F
:1001900003C000FA07F90BB90D9007FA07F90BB97C
:1001A0000000000006FA07F90BB90000000005FA8C
:1001B00007F90BB90000000004FA07F90BB90000B9
:1001C000000003FA07F90BB90000000002FA07F972
:1001D0000BB900008A9501FA07F90BB9D1F60000B6
:1001E00000FA07F90BB90BB10F7707FB07F90BB949
:1001F000DF91CF910F9108950F93CF93DF93E3E2B7
:10020000F1E0A785B089C0910E01D0910F018285E0
:10021000AC0FBD1F02C0000C0BB80D9000000BB856
:1002200000000000000C0BB800000000000C0BB830
:1002300000000000000C0BB800000000000C0BB820
:1002400000000000000C0BB80000000C8A950BB8F1
:1002500011F70000000C0BB80000000000005F98D0
:10026000DF91CF910F9108950F93CF93DF93E3E246
:10027000F1E0A785B089C0910E01D0910F01828570
:10028000AC0FBD1F8E3191F08D3151F08C3149F0A2
:100290008B3141F08A3139F0893131F0883129F0E0
:1002A0001CC032C048C05EC074C08AC00D900BB87C
:1002B0000000000C0BB80000000C0BB80000000C94
:1002C0000BB80000000C0BB80000000C0BB80000CD
:1002D000000C0BB80000000C0BB80D900BB8000020
:1002E000000C0BB80000000C0BB80000000C0BB8A1
:1002F0000000000C0BB80000000C0BB80000000C54
:100300000BB80000000C0BB80D900BB80000000CEF
:100310000BB80000000C0BB80000000C0BB800007C
:10032000000C0BB80000000C0BB80000000C0BB860
:100330000000000C0BB80D900BB80000000C0BB8BF
:100340000000000C0BB80000000C0BB80000000C03
:100350000BB80000000C0BB80000000C0BB800003C
:10036000000C0BB80D900BB80000000C0BB800008F
:10037000000C0BB80000000C0BB80000000C0BB810
:100380000000000C0BB80000000C0BB80000000CC3
:100390000BB80D900BB80000000C0BB80000000C5F
:1003A0000BB80000000C0BB80000000C0BB80000EC
:1003B000000C0BB80000000C0BB80000000C0BB8D0
:1003C0000D900BB80000000C0BB80000000C0BB82F
:1003D0000000000C0BB80000000C0BB80000000C73
:1003E0000BB80000000C0BB80000000C0BB80D900F
:1003F0000BB80000000C0BB80000000C0BB800009C
:10040000000C0BB80000000C0BB80000000C0BB87F
:100410000000000C0BB80000000C0BB80D900BB8DE
:100420000000000C0BB80000000C0BB80000000C22
:100430000BB80000000C0BB80000000C0BB800005B
:10044000000C0BB80000000C0BB80D900BB80000AE
:10045000000C0BB80000000C0BB80000000C0BB82F
:100460000000000C0BB80000000C0BB80000000CE2
:100470000BB80000000C0BB80D900BB80000000C7E
:100480000BB80000000C0BB80000000C0BB800000B
:10049000000C0BB80000000C0BB80000000C0BB8EF
:1004A0000000000C0BB80D900BB80000000C0BB84E
:1004B0000000000C0BB80000000C0BB80000000C92
:1004C0000BB80000000C0BB80000000C0BB80000CB
:1004D000000C0BB80D900BB80000000C0BB800001E
:1004E000000C0BB80000000C0BB80000000C0BB89F
:1004F0000000000C0BB80000000C0BB80000000C52
:100500000BB80D900BB80000000C0BB80000000CED
:100510000BB80000000C0BB80000000C0BB800007A
:10052000000C0BB80000000C0BB80000000C0BB85E
:100530000D900BB80000000C0BB80000000C0BB8BD
:100540000000000C0BB80000000C0BB80000000C01
:100550000BB80000000C0BB80000000C0BB80D909D
:100560000BB80000000C0BB80000000C0BB800002A
:10057000000C0BB80000000C0BB80000000C0BB80E
:100580000000000C0BB80000000C0BB80D900BB86D
:100590000000000C0BB80000000C0BB80000000CB1
:1005A0000BB80000000C0BB80000000C0BB80000EA
:1005B000000C0BB80000000C0BB80D900BB800003D
:1005C000000C0BB80000000C0BB80000000C0BB8BE
:1005D0000000000C0BB80000000C0BB80000000C71
:1005E0000BB80000000C0BB80D900BB80000000C0D
:1005F0000BB80000000C0BB80000000C0BB800009A
:10060000000C0BB80000000C0BB80000000C0BB87D
:100610000000000C0BB80D900BB80000000C0BB8DC
:100620000000000C0BB80000000C0BB80000000C20
:100630000BB80000000C0BB80000000C0BB8000059
:10064000000C0BB80D900BB80000000C0BB80000AC
:10065000000C0BB80000000C0BB80000000C0BB82D
:100660000000000C0BB80000000C0BB80000000CE0
:100670000BB80D900BB80000000C0BB80000000C7C
:100680000BB80000000C0BB80000000C0BB8000009
:10069000000C0BB80000000C0BB80000000C0BB8ED
:1006A0000D900BB80000000C0BB80000000C0BB84C
:1006B0000000000C0BB80000000C0BB80000000C90
:1006C0000BB80000000C0BB80000000C0BB80D902C
:1006D0000BB80000000C0BB80000000C0BB80000B9
:1006E000000C0BB80000000C0BB80000000C0BB89D
:1006F0000000000C0BB80000000C0BB80D900BB8FC
:100700000000000C0BB80000000C0BB80000000C3F
:100710000BB80000000C0BB80000000C0BB8000078
:10072000000C0BB80000000C0BB80D900BB80000CB
:10073000000C0BB80000000C0BB80000000C0BB84C
:100740000000000C0BB80000000C0BB80000000CFF
:100750000BB80000000C0BB80D900BB80000000C9B
:100760000BB80000000C0BB80000000C0BB8000028
:10077000000C0BB80000000C0BB80000000C0BB80C
:100780000000000C0BB80D900BB80000000C0BB86B
:100790000000000C0BB80000000C0BB80000000CAF
:1007A0000BB80000000C0BB80000000C0BB80000E8
:1007B000000C0BB80D900BB80000000C0BB800003B
:1007C000000C0BB80000000C0BB80000000C0BB8BC
:1007D0000000000C0BB80000000C0BB80000000C6F
:1007E0000BB80D900BB80000000C0BB80000000C0B
:1007F0000BB80000000C0BB80000000C0BB8000098
:10080000000C0BB80000000C0BB80000000C0BB87B
:10081000000000005F98DF91CF910F910895209123
:1008200023013091240180912A0190912B012817F6
:1008300039070CF44EC08CEA93E0909389008093C2
:10084000880010922401109223018091250190913B
:100850002601A0912701B09128010196A11DB11D8B
:100860008093250190932601A0932701B09328013E
:1008700080910A0190910B01A0910C01B0910D01A2
:10088000892B8A2B8B2B09F180910A0190910B0106
:10089000A0910C01B0910D01181619061A061B063D
:1008A00084F580910A0190910B01A0910C01B09107
:1008B0000D010197A109B10980930A0190930B01E1
:1008C000A0930C01B0930D011CC01092B1002B98A5
:1008D00018C0209123013091240180913101082E0C
:1008E000000C990B2817390761F48AE490E0909383
:1008F0008900809388008BE894E0909311018093A5
:10090000100180912301909124010196909324017C
:100910008093230108952091230130912401809137
:10092000290190E02817390759F410920F0110920D
:100930000E0180912F01809330018BEB94E00DC06C
:10094000209123013091240180912A0190912B0163
:100950002817390731F48FE094E0909311018093C8
:10096000100180912301909124010196909324011C
:100970008093230108953091840020912E012A5004
:10098000231B2350F0F72D5F19F02A9511F001C0B9
:100990000000E0911201F09113010995909130014E
:1009A00080912F0191110FC08093300190912D0102
:1009B00020910E0130910F01290F311D30930F014D
:1009C00020930E0103C09150909330014091230178
:1009D000509124014F5F5F4F082E000C990B019638
:1009E00060912C01689F9001699F300D11248091C6
:1009F0002901B901680F711D4617570731F48BE8BB
:100A000094E09093110180931001809123019091C3
:100A10002401019690932401809323010895089561
:100A200020912D01982F969596959695E0913201FB
:100A3000F09133018770629FB0011124690F711D1D
:100A4000E60FF71F413061F420E830E0A90102C051
:100A5000559547958A95E2F7CA019081892B19C06F
:100A600041110CC02FE73FEFA90102C055954795F2
:100A70008A95E2F7CA01908189230BC020E830E013
:100A8000A90102C0559547958A95E2F7CA01908160
:100A90008927808308952F923F924F925F926F92A1
:100AA0007F928F929F92AF92BF92CF92DF92EF92FE
:100AB000FF920F931F93CF93DF9300D000D0CDB759
:100AC000DEB7E82EF12C30912D01A32FB0E06D019F
:100AD00093E0CC0CDD1C9A95E1F7CE14DF040CF406
:100AE000A3C190912C01961708F49EC1E42FF0E069
:100AF000FC83EB83CE16DF060CF496C1921708F444
:100B000093C1841385C030E0462F50E02417350789
:100B100001F5EC14FD040CF087C1691708F084C1DD
:100B2000402F0F900F900F900F90DF91CF911F915A
:100B30000F91FF90EF90DF90CF90BF90AF909F907C
:100B40008F907F906F905F904F903F902F900C947C
:100B500010052417350720F4952FA901262F392FCA
:100B6000982F977060E870E002C0759567959A9528
:100B7000E2F76983869586958695A49FF001A59FE7
:100B8000F00DB49FF00D11247F01E80EF11CC70198
:100B9000013099F42417350708F446C1E0911D018E
:100BA000F0911E01E80FF91F6081F9806F296083C1
:100BB0008A0F9B1F4F5F5F4FEDCF011113C06095F0
:100BC0002417350708F430C1E0911D01F0911E0192
:100BD000E80FF91F7081762370838A0F9B1F4F5F88
:100BE0005F4FEECF023009F01FC12417350708F41C
:100BF0001BC1E0911D01F0911E01E80FF91F6081FA
:100C00007981672760838A0F9B1F4F5F5F4FEDCF0E
:100C10006213A3C0EB81FC81D701EE15FF0529F417
:100C2000EC15FD050CF479CFFFC0EA17FB0710F4B3
:100C3000DF01F701CD01877099274FEF50E002C027
:100C4000559547958A95E2F7242F369FB0011124D8
:100C5000CD0153E0969587955A95E1F7860F971F3A
:100C6000DF01A770BB27EE24EA94F12C02C0F594B3
:100C7000E794AA95E2F7FC82EB823E2D309513E0D3
:100C8000F695E7951A95E1F76E0F7F1F8617970780
:100C900019F4232F242330E00130E9F4AC014F5F35
:100CA0005F4FE0911D01F0911E01E80FF91F808157
:100CB000282B20838FEFE0911D01F0911E01E40F9E
:100CC000F51F4617570720F480834F5F5F4FF3CF20
:100CD0008081832B40C001111FC0AC014F5F5F4F6B
:100CE000E0911D01F0911E01E80FF91F2095808110
:100CF00028232083E0911D01F0911E01E40FF51FD0
:100D00004617570720F410824F5F5F4FF3CF832FB2
:100D10008095308183231FC0023009F085C0AC016B
:100D20004F5F5F4FE0911D01F0911E01E80FF91F29
:100D3000808128272083E0911D01F0911E01E40F9E
:100D4000F51F80814617570728F4809580834F5FF1
:100D50005F4FF1CF8327808367C0C62ED12C481701
:100D600048F4A7018B819C81481B590B5C834B8302
:100D70008FEF07C0EB81FC81EE19FF09FC83EB8349
:100D800081E0422E512C261730F4960124193509A2
:100D900029019FEF03C04C185D0891E04B815C81F5
:100DA000441555054CF43B812C815C824B82432ECB
:100DB000522E51E0598301C019820A83440C551CFC
:100DC0005201EB81FC81AE1ABF0A1F01220C331CB9
:100DD000812C912C692E990F7708082F880F110B01
:100DE0002B813C8128153905FCF04A816C2D8E2D14
:100DF0000E941005B7FC0AC03981313019F4E00EA9
:100E0000F11E02C0C60CD71CA218B308498141309C
:100E100019F4C60CD71C02C0E00EF11EA40CB51CC0
:100E20005FEF851A950ADCCF0F900F900F900F900F
:100E3000DF91CF911F910F91FF90EF90DF90CF90B6
:100E4000BF90AF909F908F907F906F905F904F90EA
:100E50003F902F900895EF92FF920F931F93CF939F
:100E6000DF93C82FD62FFF24F394F80E042F262FDC
:100E70004F2D0E944B0511E01D0F212F4C2F6D2F80
:100E80008C2F0E944B05212F4F2D6D2F8F2D0E94EF
:100E90004B05212F4F2D612F8C2F0E944B05DF9189
:100EA000CF911F910F91FF90EF9008951F920F9295
:100EB0000FB60F9211242F933F938F939F93AF936D
:100EC000BF938091190190911A01A0911B01B091DB
:100ED0001C013091180123E0230F2D3720F40196D7
:100EE000A11DB11D05C026E8230F0296A11DB11D4D
:100EF000209318018093190190931A01A0931B016C
:100F0000B0931C018091140190911501A0911601DC
:100F1000B09117010196A11DB11D8093140190930A
:100F20001501A0931601B0931701BF91AF919F9146
:100F30008F913F912F910F900FBE0F901F9018959A
:100F40001F920F920FB60F9211242F933F934F933E
:100F50005F936F937F938F939F93AF93BF93EF9321
:100F6000FF93E0911001F09111010995FF91EF912C
:100F7000BF91AF919F918F917F916F915F914F91B1
:100F80003F912F910F900FBE0F901F90189578945E
:100F900084B5826084BD84B5816084BD85B582607E
:100FA00085BD85B5816085BD80916E00816080932F
:100FB0006E00109281008091810082608093810098
:100FC00080918100816080938100809180008160A8
:100FD000809380008091B10084608093B100809103
:100FE000B00081608093B00080917A00846080932B
:100FF0007A0080917A00826080937A0080917A00F2
:10100000816080937A0080917A00806880937A0072
:101010001092C10080E096E00E94C90990931E01E1
:1010200080931D01009709F458C010921F0110927F
:101030002001909333018093320180E180932D0150
:1010400080E680932C0110922501109226011092C7
:1010500027011092280181E080932F0180933001B5
:1010600028EB30E03093130120931201579A219A14
:101070005F98299A239A92EC9093800099E190933B
:1010800081009CE39093290197EC90932E0197E0C7
:101090009093310128E331E030932B0120932A0112
:1010A0002FEF33E030938700209386002AE430E06E
:1010B000309389002093880029E331E030932401A4
:1010C000209323012FE034E030931101209310018D
:1010D00080936F0078940E9453008FE5882E912CA6
:1010E000A12CB12C90E1492E512C612C712C20E0C7
:1010F000222E20E0322E10E410937C0080917A00A2
:10110000806480937A0080917A0086FDFCCFC09045
:101110007800D09079000E940F092FE730E040E07E
:1011200050E00E946609C62F0E940F09A501940194
:101130000E946609D62F0E940F090D2C000CEE08A4
:10114000FF08A30192010E946609DC01CB018059CE
:101150009F4FAF4FBF4FC816D906EA06FB0634F0C3
:1011600041E06D2F8C2F0E942B0707C040E06D2FB0
:101170008C2F0E942B070E9453002114310409F484
:10118000BBCF0E940000B8CF8F929F92AF92BF92C8
:10119000CF92DF92EF92FF92CF93DF93EC016881C1
:1011A00079818A819B81611571058105910521F401
:1011B00064E279ED8BE597E02DE133EF41E050E01B
:1011C0000E94660949015A019B01AC01A7EAB1E4FA
:1011D0000E9485096B017C01ACEEB4EFA50194017E
:1011E0000E949309DC01CB018C0D9D1DAE1DBF1D1E
:1011F000B7FF03C00197A109B04888839983AA83E8
:10120000BB83BC01CD019F77DF91CF91FF90EF9021
:10121000DF90CF90BF90AF909F908F9008958F9266
:101220009F92AF92BF92CF92DF92EF92FF92609126
:1012300000017091010180910201909103016115FB
:1012400071058105910521F464E279ED8BE597E064
:101250002DE133EF41E050E00E94660949015A0157
:101260009B01AC01A7EAB1E40E9485096B017C01F6
:10127000ACEEB4EFA50194010E949309DC01CB010F
:101280008C0D9D1DAE1DBF1DB7FF03C00197A109A9
:10129000B0488093000190930101A0930201B093A4
:1012A0000301BC01CD019F77FF90EF90DF90CF90BD
:1012B000BF90AF909F908F900895609300017093BE
:1012C000010180930201909303010895052E97FB7D
:1012D0001EF400940E947D0957FD07D00E949809D2
:1012E00007FC03D04EF40C947D0950954095309541
:1012F00021953F4F4F4F5F4F089590958095709582
:1013000061957F4F8F4F9F4F08950E94BA09A59F07
:10131000900DB49F900DA49F800D911D11240895F0
:10132000B7FF0C9485090E948509821B930B0895D1
:10133000A1E21A2EAA1BBB1BFD010DC0AA1FBB1FD9
:10134000EE1FFF1FA217B307E407F50720F0A21B4B
:10135000B30BE40BF50B661F771F881F991F1A94B8
:1013600069F760957095809590959B01AC01BD01E2
:10137000CF010895A29FB001B39FC001A39F700D3C
:10138000811D1124911DB29F700D811D1124911D8D
:1013900008950F931F93CF93DF938230910510F43C
:1013A00082E090E0E0913601F091370120E030E0FA
:1013B000A0E0B0E0309719F14081518102811381A2
:1013C00048175907C8F08417950769F4109731F04A
:1013D00012960C93129713961C9327C00093360114
:1013E0001093370122C02115310519F04217530718
:1013F00018F49A01BD01EF01DF01F801DBCF2115DF
:101400003105F9F0281B390B2430310580F48A812D
:101410009B816115710521F0FB019383828304C0D8
:101420009093370180933601FE01329644C0FE014D
:10143000E20FF31F8193919322503109398328835E
:101440003AC02091340130913501232B41F4209191
:10145000060130910701309335012093340120912A
:101460000401309105012115310541F42DB73EB736
:101470004091080150910901241B350BE091340182
:10148000F0913501E217F307A0F42E1B3F0B28174C
:10149000390778F0AC014E5F5F4F2417350748F0ED
:1014A0004E0F5F1F50933501409334018193919308
:1014B00002C0E0E0F0E0CF01DF91CF911F910F91EA
:1014C0000895CF93DF93009709F481C0FC01329710
:1014D00013821282A0913601B0913701109781F4E6
:1014E00020813181820F931F209134013091350189
:1014F0002817390751F5F0933501E093340167C09F
:10150000ED0120E030E0CE17DF0740F44A815B8137
:101510009E0141155105F1F0EA01F5CFD383C28355
:1015200040815181840F951FC817D90759F48881CC
:101530009981840F951F0296918380838A819B8174
:10154000938382832115310529F4F0933701E093C9
:1015500036013DC0E901FB83EA8349915991C40FEB
:10156000D51FEC17FD0761F480819181840F951FD1
:101570000296E90199838883828193819B838A8380
:10158000E0E0F0E012968D919C911397009719F08E
:10159000FD01DC01F7CF8D919C9111979D012E5F8C
:1015A0003F4F820F931F209134013091350128174E
:1015B000390769F4309729F41092370110923601F7
:1015C00002C013821282B0933501A0933401DF91DF
:0815D000CF910895F894FFCFBC
:0A15D80001000000000038012000AF
:00000001FF
